:1000000012C017C016C015C014C013C012C011C052
:1000100010C00FC00EC00DC00CC00BC00AC009C07C
:1000200008C007C006C011241FBECFEDCDBFE8D069
:1000300099C1E6CF5F9BFECF8CB108955D9BFECF4B
:100040008CB9089588B185FB882780F9089584309C
:1000500080F56623F1F0823071F0833099F08130C1
:1000600029F080B7806880BF66BF089580B780623E
:1000700080BF6CBF08958FB580688FBD70E07BBD79
:100080006ABD08958FB580628FBD70E079BD68BD8F
:100090000895823059F0833069F0813021F080B7C3
:1000A0008F7780BF089580B78F7DFBCF8FB58F7717
:1000B0008FBD08958FB58F7DFBCFCF93DF93282F12
:1000C000862F2D30C0F4E8E3F0E0C6E3D0E0A7E3EC
:1000D000B0E0283038F02650E2E3F0E0C0E3D0E0B2
:1000E000A1E3B0E08330B9F140F48130F9F082301F
:1000F00041F1882379F080E016C08430A9F1853081
:10010000D1F7888190E002C0959587952A95E2F70E
:10011000817009C09C9141E050E001C0440F2A95D4
:10012000EAF7942B9C93DF91CF9108953C9181E065
:1001300090E001C0880F2A95EAF7809583238C937D
:10014000DACF808141E050E001C0440F2A95EAF700
:1001500084278083D0CF808141E050E001C0440FEC
:100160002A95EAF7842BF5CF308181E090E001C039
:10017000880F2A95EAF780958323EBCF0F931F937F
:10018000CF93DF938B01EC018991811105C0DF9141
:10019000CF911F910F910895F8010995F5CFAF9276
:1001A000BF92CF92DF92EF92FF920F931F93CF9364
:1001B000DF938C01A42E6901B12C862F8150990BFD
:1001C0007C01CB2DD0E0F60109958A1519F0CE15EA
:1001D000DF057CF0C00FD11F1882C801DF91CF91DD
:1001E0001F910F91FF90EF90DF90CF90BF90AF9055
:1001F0000895803240F3C00FD11F8883B394E1CFBC
:10020000CDB7DD27C254CDBF12B88FEB89B988E1D5
:100210008AB986E083B983E080BF82E083BF16BEDF
:100220001CBE81E08FBD8AE08EBD1BBC1ABC19BC10
:1002300018BC7894D12CCE0101967C018E010E5F02
:100240001F4F2AE130E04AE062E4C701A8DFC8019D
:100250002FD0E981E156BE2CCF2C912FE43188F7C5
:10026000F0E0EC54FE4F0994D82EEBCF6EE170E035
:10027000802F84DF8AE0E2DEE4CF61E01EDFE1CFA1
:1002800060E0FCCF62E0FACF63E0F8CF64E0F6CF45
:1002900065E013DF4AE06B2D7C2D90E026D06EE107
:1002A00070E0E7CFCFDEF6CF682F8D2DD0DEC9CF3F
:1002B000FC0188279927E89421912032E9F329301D
:1002C00010F02E30C8F32B3239F02D3231F468940F
:1002D00003C015D0820F911D219120532A30C8F3FD
:1002E0001EF4909581959F4F0895BB274A3031F4B5
:1002F000992322F4BDE2909581959F4F0BC0BC01DC
:10030000880F991F880F991F860F971F880F991FB5
:100310000895BB27FB015527AA27880F991FAA1FFD
:10032000A41710F0A41B83955051B9F7A05DAA3310
:1003300008F0A95DA193009779F7B111B1931192DB
:10034000CB0100C0DC01FC01672F71917723E1F73D
:10035000329704C07C916D9370836291AE17BF0792
:10036000C8F30895F894FFCF9DCF6BCF7DCF69CFB1
:100370007DCF67CF66CF88CF80CF63CF62CF86CF68
:1003800060CF5FCF7DCF90CF5CCF82CF5ACF7ACF77
:00000001FF
